:100000000C9443000C9444010C9444010C9444015E
:100010000C9444010C9444010C9444010C9444014C
:100020000C9444010C9444010C9444010C9444013C
:100030000C9444010C946D000C9444010C94440104
:100040000C9444010C9444010C9444010C9444011C
:100050000C944401006000A200028C00A200B200D7
:1000600002CE00B200C10002DE00D000DE0002FCC1
:1000700000EC00EF00031800C100D00002ED00DE2C
:1000800000EC00030A0011241FBECFE5D8E0DEBF5C
:10009000CDBFE4E5F0E040E017C0B591A591359102
:1000A0002591059107FD0CC095918591EF01F92FE0
:1000B000E82F05900D92A217B307D9F7FE0104C0EF
:1000C0001D92A217B307E1F7E538F40731F70E9454
:0A00D0000A010C946B00F894FFCFB6
:1000DA001F920F920FB60F9211242F933F934F93B3
:1000EA005F936F937F938F939F93AF93BF93EF9396
:1000FA00FF938CB18F3479F481E00E94400187E04C
:10010A000E9424018CEE90E00E94FB008EED90E0AC
:10011A000E94FB003BC0833479F482E00E944001D4
:10012A0087E00E9418018CEE90E00E94FB0081ECAF
:10013A0090E00E94FB002AC0813479F483E00E9497
:10014A0040018CEE90E00E94FB0080ED90E00E945E
:10015A00FB0087E00E94240119C0823479F484E00C
:10016A000E9440018CEE90E00E94FB0082EB90E03E
:10017A000E94FB0087E00E94180108C08CEE90E004
:10018A000E94FB0082EA90E00E94FB00FF91EF913F
:10019A00BF91AF919F918F917F916F915F914F9195
:0E01AA003F912F910F900FBE0F901F90189550
:1001B800662379F06130D1F444B321E030E0B9012D
:1001C80002C0660F771F8A95E2F7CB01842B84BBA8
:1001D800089544B321E030E0B90102C0660F771FEB
:0E01E8008A95E2F7CB018095842384BB0895AD
:1001F600CF93DF93EC018881882331F021960E940A
:0E0206003C0189918111FBCFDF91CF910895CA
:1002140061E087E00E94DC000E943601789480E669
:0C02240090E00E94FB000E942F01FFCF21
:1002300095B321E030E002C0220F331F8A95E2F728
:080240002095292325BB089538
:1002480095B321E030E002C0220F331F8A95E2F710
:06025800292B25BB0895CF
:0E025E0087B3806B87BB8DB183658DB9089522
:0C026C00539A549A579A87E689B908956E
:080278005D9BFECF8CB90895D7
:080280008FB9779BFECF0895B2
:040288000C940000D2
:10028C00456E746572204F3A4C45442031204F4ED8
:10029C00202C20433A4C45442031204F464620091F
:1002AC000D202020202020413A4C45442032204F64
:1002BC004E202C20423A4C45442032204F464609D1
:0202CC000D0023
:1002CE00496E76616C696420696E707574090D00F3
:0F02DE004C45442032206973204F4646090D00DD
:0F02ED004C45442031206973204F4646090D00CF
:0E02FC004C45442032206973204F4E090D00FE
:0E030A004C45442031206973204F4E090D00F0
:03031800090D00CC
:00000001FF
