:100000000C942D000C949D000C949D000C949D006C
:100010000C949D000C949D000C949D000C949D00EC
:100020000C949D000C949D000C949D000C949D00DC
:100030000C949D000C949D000C949D000C949D00CC
:100040000C949D000C949D000C949D000C949D00BC
:100050000C949D0000600061800011241FBECFE55C
:10006000D8E0DEBFCDBFE4E5F0E040E017C0B591D9
:10007000A59135912591059107FD0CC0959185912C
:10008000EF01F92FE82F05900D92A217B307D9F7CA
:10009000FE0104C01D92A217B307E1F7E935F4078A
:0E00A00031F70E9476000C945500F894FFCFC3
:1000AE00662379F06130D1F444B321E030E0B90138
:1000BE0002C0660F771F8A95E2F7CB01842B84BBB3
:1000CE00089544B321E030E0B90102C0660F771FF6
:0E00DE008A95E2F7CB018095842384BB0895B8
:1000EC0061E087E00E94570061E082E00E945700C7
:1000FC000E9494000E94990080936000813011F45A
:10010C00AF9AF8CF823011F4AF98F4CF833011F45A
:0C011C00AA9AF0CF843071F7AA98ECCFBB
:0A012800BE9A8DB183648DB908956D
:08013200779BFECF8FB1089509
:04013A000C94000021
:00000001FF
